{
  "contractName": "BarberShop",
  "abi": [
    {
      "inputs": [],
      "stateMutability": "nonpayable",
      "type": "constructor"
    },
    {
      "anonymous": false,
      "inputs": [
        {
          "indexed": true,
          "internalType": "address",
          "name": "clientAddress",
          "type": "address"
        },
        {
          "indexed": false,
          "internalType": "uint256",
          "name": "serviceId",
          "type": "uint256"
        },
        {
          "indexed": false,
          "internalType": "uint256",
          "name": "timestamp",
          "type": "uint256"
        }
      ],
      "name": "AppointmentBooked",
      "type": "event"
    },
    {
      "anonymous": false,
      "inputs": [
        {
          "indexed": true,
          "internalType": "address",
          "name": "clientAddress",
          "type": "address"
        },
        {
          "indexed": false,
          "internalType": "uint256",
          "name": "serviceId",
          "type": "uint256"
        },
        {
          "indexed": false,
          "internalType": "uint256",
          "name": "amount",
          "type": "uint256"
        }
      ],
      "name": "AppointmentPaid",
      "type": "event"
    },
    {
      "anonymous": false,
      "inputs": [
        {
          "indexed": true,
          "internalType": "address",
          "name": "clientAddress",
          "type": "address"
        },
        {
          "indexed": false,
          "internalType": "string",
          "name": "name",
          "type": "string"
        },
        {
          "indexed": false,
          "internalType": "uint256",
          "name": "phoneNumber",
          "type": "uint256"
        }
      ],
      "name": "ClientAdded",
      "type": "event"
    },
    {
      "anonymous": false,
      "inputs": [
        {
          "indexed": true,
          "internalType": "address",
          "name": "clientAddress",
          "type": "address"
        }
      ],
      "name": "ClientRemoved",
      "type": "event"
    },
    {
      "anonymous": false,
      "inputs": [
        {
          "indexed": true,
          "internalType": "address",
          "name": "clientAddress",
          "type": "address"
        },
        {
          "indexed": false,
          "internalType": "string",
          "name": "newName",
          "type": "string"
        },
        {
          "indexed": false,
          "internalType": "uint256",
          "name": "newPhoneNumber",
          "type": "uint256"
        }
      ],
      "name": "ClientUpdated",
      "type": "event"
    },
    {
      "anonymous": false,
      "inputs": [
        {
          "indexed": true,
          "internalType": "uint256",
          "name": "serviceId",
          "type": "uint256"
        },
        {
          "indexed": false,
          "internalType": "string",
          "name": "name",
          "type": "string"
        },
        {
          "indexed": false,
          "internalType": "address",
          "name": "staffId",
          "type": "address"
        }
      ],
      "name": "ServiceAdded",
      "type": "event"
    },
    {
      "anonymous": false,
      "inputs": [
        {
          "indexed": true,
          "internalType": "address",
          "name": "staffAddress",
          "type": "address"
        },
        {
          "indexed": false,
          "internalType": "string",
          "name": "name",
          "type": "string"
        },
        {
          "indexed": false,
          "internalType": "address",
          "name": "employeeId",
          "type": "address"
        }
      ],
      "name": "StaffAdded",
      "type": "event"
    },
    {
      "anonymous": false,
      "inputs": [
        {
          "indexed": true,
          "internalType": "address",
          "name": "staffAddress",
          "type": "address"
        }
      ],
      "name": "StaffRemoved",
      "type": "event"
    },
    {
      "anonymous": false,
      "inputs": [
        {
          "indexed": true,
          "internalType": "address",
          "name": "staffAddress",
          "type": "address"
        },
        {
          "indexed": false,
          "internalType": "string",
          "name": "newName",
          "type": "string"
        },
        {
          "indexed": false,
          "internalType": "address",
          "name": "newEmployeeId",
          "type": "address"
        }
      ],
      "name": "StaffUpdated",
      "type": "event"
    },
    {
      "inputs": [
        {
          "internalType": "address",
          "name": "",
          "type": "address"
        }
      ],
      "name": "clients",
      "outputs": [
        {
          "internalType": "string",
          "name": "name",
          "type": "string"
        },
        {
          "internalType": "uint256",
          "name": "phoneNumber",
          "type": "uint256"
        }
      ],
      "stateMutability": "view",
      "type": "function"
    },
    {
      "inputs": [],
      "name": "owner",
      "outputs": [
        {
          "internalType": "address",
          "name": "",
          "type": "address"
        }
      ],
      "stateMutability": "view",
      "type": "function"
    },
    {
      "inputs": [
        {
          "internalType": "uint256",
          "name": "",
          "type": "uint256"
        }
      ],
      "name": "services",
      "outputs": [
        {
          "internalType": "string",
          "name": "name",
          "type": "string"
        },
        {
          "internalType": "address",
          "name": "staffId",
          "type": "address"
        }
      ],
      "stateMutability": "view",
      "type": "function"
    },
    {
      "inputs": [
        {
          "internalType": "address",
          "name": "",
          "type": "address"
        }
      ],
      "name": "staff",
      "outputs": [
        {
          "internalType": "string",
          "name": "name",
          "type": "string"
        },
        {
          "internalType": "address",
          "name": "staffId",
          "type": "address"
        }
      ],
      "stateMutability": "view",
      "type": "function"
    },
    {
      "inputs": [
        {
          "internalType": "address",
          "name": "_clientAddress",
          "type": "address"
        },
        {
          "internalType": "string",
          "name": "_name",
          "type": "string"
        },
        {
          "internalType": "uint256",
          "name": "_phoneNumber",
          "type": "uint256"
        }
      ],
      "name": "addClient",
      "outputs": [],
      "stateMutability": "nonpayable",
      "type": "function"
    },
    {
      "inputs": [
        {
          "internalType": "address",
          "name": "_clientAddress",
          "type": "address"
        },
        {
          "internalType": "string",
          "name": "_newName",
          "type": "string"
        },
        {
          "internalType": "uint256",
          "name": "_newPhoneNumber",
          "type": "uint256"
        }
      ],
      "name": "updateClient",
      "outputs": [],
      "stateMutability": "nonpayable",
      "type": "function"
    },
    {
      "inputs": [
        {
          "internalType": "address",
          "name": "_clientAddress",
          "type": "address"
        }
      ],
      "name": "removeClient",
      "outputs": [],
      "stateMutability": "nonpayable",
      "type": "function"
    },
    {
      "inputs": [
        {
          "internalType": "address",
          "name": "_staffAddress",
          "type": "address"
        },
        {
          "internalType": "string",
          "name": "_name",
          "type": "string"
        },
        {
          "internalType": "address",
          "name": "_staffId",
          "type": "address"
        }
      ],
      "name": "addStaff",
      "outputs": [],
      "stateMutability": "nonpayable",
      "type": "function"
    },
    {
      "inputs": [
        {
          "internalType": "address",
          "name": "_staffAddress",
          "type": "address"
        },
        {
          "internalType": "string",
          "name": "_newName",
          "type": "string"
        },
        {
          "internalType": "address",
          "name": "_newStaffId",
          "type": "address"
        }
      ],
      "name": "updateStaff",
      "outputs": [],
      "stateMutability": "nonpayable",
      "type": "function"
    },
    {
      "inputs": [
        {
          "internalType": "address",
          "name": "_staffAddress",
          "type": "address"
        }
      ],
      "name": "removeStaff",
      "outputs": [],
      "stateMutability": "nonpayable",
      "type": "function"
    },
    {
      "inputs": [
        {
          "internalType": "uint256",
          "name": "_serviceId",
          "type": "uint256"
        },
        {
          "internalType": "string",
          "name": "_name",
          "type": "string"
        },
        {
          "internalType": "address",
          "name": "_staffId",
          "type": "address"
        }
      ],
      "name": "addService",
      "outputs": [],
      "stateMutability": "nonpayable",
      "type": "function"
    },
    {
      "inputs": [
        {
          "internalType": "uint256",
          "name": "_serviceId",
          "type": "uint256"
        }
      ],
      "name": "viewService",
      "outputs": [
        {
          "internalType": "string",
          "name": "serviceName",
          "type": "string"
        },
        {
          "internalType": "address",
          "name": "staffId",
          "type": "address"
        }
      ],
      "stateMutability": "view",
      "type": "function"
    },
    {
      "inputs": [
        {
          "internalType": "address",
          "name": "_staffId",
          "type": "address"
        }
      ],
      "name": "viewStaff",
      "outputs": [
        {
          "internalType": "string",
          "name": "staffName",
          "type": "string"
        },
        {
          "internalType": "address",
          "name": "staffId",
          "type": "address"
        }
      ],
      "stateMutability": "view",
      "type": "function"
    },
    {
      "inputs": [
        {
          "internalType": "uint256",
          "name": "_serviceId",
          "type": "uint256"
        }
      ],
      "name": "bookAppointment",
      "outputs": [],
      "stateMutability": "nonpayable",
      "type": "function"
    },
    {
      "inputs": [
        {
          "internalType": "uint256",
          "name": "_serviceId",
          "type": "uint256"
        }
      ],
      "name": "payForAppointment",
      "outputs": [],
      "stateMutability": "payable",
      "type": "function"
    }
  ],
  "bytecode": "0x608060405234801561000f575f80fd5b50335f806101000a81548173ffffffffffffffffffffffffffffffffffffffff021916908373ffffffffffffffffffffffffffffffffffffffff1602179055506121c58061005c5f395ff3fe6080604052600436106100e7575f3560e01c80638bd5696f11610089578063c22c4f4311610058578063c22c4f43146102f9578063c4522c9214610336578063c645e7391461035e578063fbe52f5714610386576100e7565b80638bd5696f146102425780638da5cb5b1461027f5780639089f616146102a9578063b15386ae146102d1576100e7565b80634f83158a116100c55780634f83158a1461016357806361eed2a9146101a05780636c5741e7146101dd578063857aeb601461021a576100e7565b8063039ec44a146100eb578063108616751461011357806327e405171461013b575b5f80fd5b3480156100f6575f80fd5b50610111600480360381019061010c919061195b565b6103a2565b005b34801561011e575f80fd5b50610139600480360381019061013491906119c7565b610516565b005b348015610146575f80fd5b50610161600480360381019061015c919061195b565b6106c3565b005b34801561016e575f80fd5b5061018960048036038101906101849190611a33565b610800565b604051610197929190611ae7565b60405180910390f35b3480156101ab575f80fd5b506101c660048036038101906101c19190611a33565b6108c5565b6040516101d4929190611b24565b60405180910390f35b3480156101e8575f80fd5b5061020360048036038101906101fe9190611a33565b61096b565b604051610211929190611ae7565b60405180910390f35b348015610225575f80fd5b50610240600480360381019061023b91906119c7565b610aa0565b005b34801561024d575f80fd5b5061026860048036038101906102639190611b52565b610c16565b604051610276929190611ae7565b60405180910390f35b34801561028a575f80fd5b50610293610cf3565b6040516102a09190611b7d565b60405180910390f35b3480156102b4575f80fd5b506102cf60048036038101906102ca9190611a33565b610d16565b005b3480156102dc575f80fd5b506102f760048036038101906102f29190611b96565b610e3e565b005b348015610304575f80fd5b5061031f600480360381019061031a9190611b52565b610fa3565b60405161032d929190611ae7565b60405180910390f35b348015610341575f80fd5b5061035c60048036038101906103579190611a33565b611068565b005b348015610369575f80fd5b50610384600480360381019061037f9190611b52565b6111af565b005b6103a0600480360381019061039b9190611b52565b6113e6565b005b5f8054906101000a900473ffffffffffffffffffffffffffffffffffffffff1673ffffffffffffffffffffffffffffffffffffffff163373ffffffffffffffffffffffffffffffffffffffff161461042f576040517f08c379a000000000000000000000000000000000000000000000000000000000815260040161042690611c4c565b60405180910390fd5b8160015f8573ffffffffffffffffffffffffffffffffffffffff1673ffffffffffffffffffffffffffffffffffffffff1681526020019081526020015f205f01908161047b9190611e64565b508060015f8573ffffffffffffffffffffffffffffffffffffffff1673ffffffffffffffffffffffffffffffffffffffff1681526020019081526020015f20600101819055508273ffffffffffffffffffffffffffffffffffffffff167f10a260d9027f5f5f08ff6e06b08da15d9465ebe918290e85d2b611ec1c769ef98383604051610509929190611b24565b60405180910390a2505050565b5f8054906101000a900473ffffffffffffffffffffffffffffffffffffffff1673ffffffffffffffffffffffffffffffffffffffff163373ffffffffffffffffffffffffffffffffffffffff16146105a3576040517f08c379a000000000000000000000000000000000000000000000000000000000815260040161059a90611c4c565b60405180910390fd5b8160025f8573ffffffffffffffffffffffffffffffffffffffff1673ffffffffffffffffffffffffffffffffffffffff1681526020019081526020015f205f0190816105ef9190611e64565b508060025f8573ffffffffffffffffffffffffffffffffffffffff1673ffffffffffffffffffffffffffffffffffffffff1681526020019081526020015f206001015f6101000a81548173ffffffffffffffffffffffffffffffffffffffff021916908373ffffffffffffffffffffffffffffffffffffffff1602179055508273ffffffffffffffffffffffffffffffffffffffff167f62f5894dabf8ba99bd6f4afdbe95f98bd17beb80bd6c73622d03e165442c366583836040516106b6929190611ae7565b60405180910390a2505050565b5f8054906101000a900473ffffffffffffffffffffffffffffffffffffffff1673ffffffffffffffffffffffffffffffffffffffff163373ffffffffffffffffffffffffffffffffffffffff1614610750576040517f08c379a000000000000000000000000000000000000000000000000000000000815260040161074790611c4c565b60405180910390fd5b5f60015f8573ffffffffffffffffffffffffffffffffffffffff1673ffffffffffffffffffffffffffffffffffffffff1681526020019081526020015f20905082815f0190816107a09190611e64565b508181600101819055508373ffffffffffffffffffffffffffffffffffffffff167fe477707ae34fe32b7ec183f8cc490074cee9b037b652696e900c119ea6a8e61984846040516107f2929190611b24565b60405180910390a250505050565b6002602052805f5260405f205f91509050805f01805461081f90611c97565b80601f016020809104026020016040519081016040528092919081815260200182805461084b90611c97565b80156108965780601f1061086d57610100808354040283529160200191610896565b820191905f5260205f20905b81548152906001019060200180831161087957829003601f168201915b505050505090806001015f9054906101000a900473ffffffffffffffffffffffffffffffffffffffff16905082565b6001602052805f5260405f205f91509050805f0180546108e490611c97565b80601f016020809104026020016040519081016040528092919081815260200182805461091090611c97565b801561095b5780601f106109325761010080835404028352916020019161095b565b820191905f5260205f20905b81548152906001019060200180831161093e57829003601f168201915b5050505050908060010154905082565b60605f60025f8473ffffffffffffffffffffffffffffffffffffffff1673ffffffffffffffffffffffffffffffffffffffff1681526020019081526020015f205f0160025f8573ffffffffffffffffffffffffffffffffffffffff1673ffffffffffffffffffffffffffffffffffffffff1681526020019081526020015f206001015f9054906101000a900473ffffffffffffffffffffffffffffffffffffffff16818054610a1990611c97565b80601f0160208091040260200160405190810160405280929190818152602001828054610a4590611c97565b8015610a905780601f10610a6757610100808354040283529160200191610a90565b820191905f5260205f20905b815481529060010190602001808311610a7357829003601f168201915b5050505050915091509150915091565b5f8054906101000a900473ffffffffffffffffffffffffffffffffffffffff1673ffffffffffffffffffffffffffffffffffffffff163373ffffffffffffffffffffffffffffffffffffffff1614610b2d576040517f08c379a0000000000000000000000000000000000000000000000000000000008152600401610b2490611c4c565b60405180910390fd5b5f60025f8573ffffffffffffffffffffffffffffffffffffffff1673ffffffffffffffffffffffffffffffffffffffff1681526020019081526020015f20905082815f019081610b7d9190611e64565b5081816001015f6101000a81548173ffffffffffffffffffffffffffffffffffffffff021916908373ffffffffffffffffffffffffffffffffffffffff1602179055508373ffffffffffffffffffffffffffffffffffffffff167fe70458d0a77f0cb3e716337cc93549de15c72fdc109bb5304316f4a2e951bdda8484604051610c08929190611ae7565b60405180910390a250505050565b60605f60035f8481526020019081526020015f205f0160035f8581526020019081526020015f206001015f9054906101000a900473ffffffffffffffffffffffffffffffffffffffff16818054610c6c90611c97565b80601f0160208091040260200160405190810160405280929190818152602001828054610c9890611c97565b8015610ce35780601f10610cba57610100808354040283529160200191610ce3565b820191905f5260205f20905b815481529060010190602001808311610cc657829003601f168201915b5050505050915091509150915091565b5f8054906101000a900473ffffffffffffffffffffffffffffffffffffffff1681565b5f8054906101000a900473ffffffffffffffffffffffffffffffffffffffff1673ffffffffffffffffffffffffffffffffffffffff163373ffffffffffffffffffffffffffffffffffffffff1614610da3576040517f08c379a0000000000000000000000000000000000000000000000000000000008152600401610d9a90611c4c565b60405180910390fd5b60015f8273ffffffffffffffffffffffffffffffffffffffff1673ffffffffffffffffffffffffffffffffffffffff1681526020019081526020015f205f8082015f610def9190611729565b600182015f905550508073ffffffffffffffffffffffffffffffffffffffff167f71eaa696f0767f21811adef17b683cfdcea929d4543129cd018806483aedc25960405160405180910390a250565b5f8054906101000a900473ffffffffffffffffffffffffffffffffffffffff1673ffffffffffffffffffffffffffffffffffffffff163373ffffffffffffffffffffffffffffffffffffffff1614610ecb576040517f08c379a0000000000000000000000000000000000000000000000000000000008152600401610ec290611c4c565b60405180910390fd5b60405180604001604052808381526020018273ffffffffffffffffffffffffffffffffffffffff1681525060035f8581526020019081526020015f205f820151815f019081610f1a9190611e64565b506020820151816001015f6101000a81548173ffffffffffffffffffffffffffffffffffffffff021916908373ffffffffffffffffffffffffffffffffffffffff160217905550905050827f376520d51fc2af584ddfc6c867e49974cded971ff7e9045ab2c73aef2e73c4d58383604051610f96929190611ae7565b60405180910390a2505050565b6003602052805f5260405f205f91509050805f018054610fc290611c97565b80601f0160208091040260200160405190810160405280929190818152602001828054610fee90611c97565b80156110395780601f1061101057610100808354040283529160200191611039565b820191905f5260205f20905b81548152906001019060200180831161101c57829003601f168201915b505050505090806001015f9054906101000a900473ffffffffffffffffffffffffffffffffffffffff16905082565b5f8054906101000a900473ffffffffffffffffffffffffffffffffffffffff1673ffffffffffffffffffffffffffffffffffffffff163373ffffffffffffffffffffffffffffffffffffffff16146110f5576040517f08c379a00000000000000000000000000000000000000000000000000000000081526004016110ec90611c4c565b60405180910390fd5b60025f8273ffffffffffffffffffffffffffffffffffffffff1673ffffffffffffffffffffffffffffffffffffffff1681526020019081526020015f205f8082015f6111419190611729565b600182015f6101000a81549073ffffffffffffffffffffffffffffffffffffffff021916905550508073ffffffffffffffffffffffffffffffffffffffff167fbe0c9c04c8b745ee47e5f1102a51b7adffc957970fe9242ff6c0793adc748b1e60405160405180910390a250565b5f60015f3373ffffffffffffffffffffffffffffffffffffffff1673ffffffffffffffffffffffffffffffffffffffff1681526020019081526020015f206001015403611231576040517f08c379a000000000000000000000000000000000000000000000000000000000815260040161122890611f7d565b60405180910390fd5b5f73ffffffffffffffffffffffffffffffffffffffff1660035f8381526020019081526020015f206001015f9054906101000a900473ffffffffffffffffffffffffffffffffffffffff1673ffffffffffffffffffffffffffffffffffffffff16036112d2576040517f08c379a00000000000000000000000000000000000000000000000000000000081526004016112c990611fe5565b60405180910390fd5b6040518060600160405280828152602001428152602001600160028111156112fd576112fc612003565b5b81525060015f3373ffffffffffffffffffffffffffffffffffffffff1673ffffffffffffffffffffffffffffffffffffffff1681526020019081526020015f206002015f8381526020019081526020015f205f820151815f0155602082015181600101556040820151816002015f6101000a81548160ff0219169083600281111561138b5761138a612003565b5b02179055509050503373ffffffffffffffffffffffffffffffffffffffff167fc236cc3f552fd71bee3474056eb7322ef59b65549f6b69bd1f4a313763c0a4d282426040516113db929190612030565b60405180910390a250565b5f60015f3373ffffffffffffffffffffffffffffffffffffffff1673ffffffffffffffffffffffffffffffffffffffff1681526020019081526020015f206001015403611468576040517f08c379a000000000000000000000000000000000000000000000000000000000815260040161145f90611f7d565b60405180910390fd5b5f60015f3373ffffffffffffffffffffffffffffffffffffffff1673ffffffffffffffffffffffffffffffffffffffff1681526020019081526020015f206002015f8381526020019081526020015f2090505f816001015403611500576040517f08c379a00000000000000000000000000000000000000000000000000000000081526004016114f7906120a1565b60405180910390fd5b6001600281111561151457611513612003565b5b816002015f9054906101000a900460ff16600281111561153757611536612003565b5b14611577576040517f08c379a000000000000000000000000000000000000000000000000000000000815260040161156e90612109565b60405180910390fd5b5f3490505f60025f60035f8781526020019081526020015f206001015f9054906101000a900473ffffffffffffffffffffffffffffffffffffffff1673ffffffffffffffffffffffffffffffffffffffff1673ffffffffffffffffffffffffffffffffffffffff1681526020019081526020015f206002015f8581526020019081526020015f2054905080821015611644576040517f08c379a000000000000000000000000000000000000000000000000000000000815260040161163b90612171565b60405180910390fd5b6002836002015f6101000a81548160ff0219169083600281111561166b5761166a612003565b5b02179055505f8054906101000a900473ffffffffffffffffffffffffffffffffffffffff1673ffffffffffffffffffffffffffffffffffffffff166108fc8290811502906040515f60405180830381858888f193505050501580156116d2573d5f803e3d5ffd5b503373ffffffffffffffffffffffffffffffffffffffff167f668b027a71df5411781770f114e37c2215f1eab476bce941ac1cf50de5cbcc9b858360405161171b929190612030565b60405180910390a250505050565b50805461173590611c97565b5f825580601f106117465750611763565b601f0160209004905f5260205f20908101906117629190611766565b5b50565b5b8082111561177d575f815f905550600101611767565b5090565b5f604051905090565b5f80fd5b5f80fd5b5f73ffffffffffffffffffffffffffffffffffffffff82169050919050565b5f6117bb82611792565b9050919050565b6117cb816117b1565b81146117d5575f80fd5b50565b5f813590506117e6816117c2565b92915050565b5f80fd5b5f80fd5b5f601f19601f8301169050919050565b7f4e487b71000000000000000000000000000000000000000000000000000000005f52604160045260245ffd5b61183a826117f4565b810181811067ffffffffffffffff8211171561185957611858611804565b5b80604052505050565b5f61186b611781565b90506118778282611831565b919050565b5f67ffffffffffffffff82111561189657611895611804565b5b61189f826117f4565b9050602081019050919050565b828183375f83830152505050565b5f6118cc6118c78461187c565b611862565b9050828152602081018484840111156118e8576118e76117f0565b5b6118f38482856118ac565b509392505050565b5f82601f83011261190f5761190e6117ec565b5b813561191f8482602086016118ba565b91505092915050565b5f819050919050565b61193a81611928565b8114611944575f80fd5b50565b5f8135905061195581611931565b92915050565b5f805f606084860312156119725761197161178a565b5b5f61197f868287016117d8565b935050602084013567ffffffffffffffff8111156119a05761199f61178e565b5b6119ac868287016118fb565b92505060406119bd86828701611947565b9150509250925092565b5f805f606084860312156119de576119dd61178a565b5b5f6119eb868287016117d8565b935050602084013567ffffffffffffffff811115611a0c57611a0b61178e565b5b611a18868287016118fb565b9250506040611a29868287016117d8565b9150509250925092565b5f60208284031215611a4857611a4761178a565b5b5f611a55848285016117d8565b91505092915050565b5f81519050919050565b5f82825260208201905092915050565b5f5b83811015611a95578082015181840152602081019050611a7a565b5f8484015250505050565b5f611aaa82611a5e565b611ab48185611a68565b9350611ac4818560208601611a78565b611acd816117f4565b840191505092915050565b611ae1816117b1565b82525050565b5f6040820190508181035f830152611aff8185611aa0565b9050611b0e6020830184611ad8565b9392505050565b611b1e81611928565b82525050565b5f6040820190508181035f830152611b3c8185611aa0565b9050611b4b6020830184611b15565b9392505050565b5f60208284031215611b6757611b6661178a565b5b5f611b7484828501611947565b91505092915050565b5f602082019050611b905f830184611ad8565b92915050565b5f805f60608486031215611bad57611bac61178a565b5b5f611bba86828701611947565b935050602084013567ffffffffffffffff811115611bdb57611bda61178e565b5b611be7868287016118fb565b9250506040611bf8868287016117d8565b9150509250925092565b7f596f7520617265206e6f7420746865206f776e657200000000000000000000005f82015250565b5f611c36601583611a68565b9150611c4182611c02565b602082019050919050565b5f6020820190508181035f830152611c6381611c2a565b9050919050565b7f4e487b71000000000000000000000000000000000000000000000000000000005f52602260045260245ffd5b5f6002820490506001821680611cae57607f821691505b602082108103611cc157611cc0611c6a565b5b50919050565b5f819050815f5260205f209050919050565b5f6020601f8301049050919050565b5f82821b905092915050565b5f60088302611d237fffffffffffffffffffffffffffffffffffffffffffffffffffffffffffffffff82611ce8565b611d2d8683611ce8565b95508019841693508086168417925050509392505050565b5f819050919050565b5f611d68611d63611d5e84611928565b611d45565b611928565b9050919050565b5f819050919050565b611d8183611d4e565b611d95611d8d82611d6f565b848454611cf4565b825550505050565b5f90565b611da9611d9d565b611db4818484611d78565b505050565b5b81811015611dd757611dcc5f82611da1565b600181019050611dba565b5050565b601f821115611e1c57611ded81611cc7565b611df684611cd9565b81016020851015611e05578190505b611e19611e1185611cd9565b830182611db9565b50505b505050565b5f82821c905092915050565b5f611e3c5f1984600802611e21565b1980831691505092915050565b5f611e548383611e2d565b9150826002028217905092915050565b611e6d82611a5e565b67ffffffffffffffff811115611e8657611e85611804565b5b611e908254611c97565b611e9b828285611ddb565b5f60209050601f831160018114611ecc575f8415611eba578287015190505b611ec48582611e49565b865550611f2b565b601f198416611eda86611cc7565b5f5b82811015611f0157848901518255600182019150602085019450602081019050611edc565b86831015611f1e5784890151611f1a601f891682611e2d565b8355505b6001600288020188555050505b505050505050565b7f436c69656e74206e6f74207265676973746572656400000000000000000000005f82015250565b5f611f67601583611a68565b9150611f7282611f33565b602082019050919050565b5f6020820190508181035f830152611f9481611f5b565b9050919050565b7f53657276696365206e6f7420666f756e640000000000000000000000000000005f82015250565b5f611fcf601183611a68565b9150611fda82611f9b565b602082019050919050565b5f6020820190508181035f830152611ffc81611fc3565b9050919050565b7f4e487b71000000000000000000000000000000000000000000000000000000005f52602160045260245ffd5b5f6040820190506120435f830185611b15565b6120506020830184611b15565b9392505050565b7f4e6f206170706f696e746d656e7420666f756e640000000000000000000000005f82015250565b5f61208b601483611a68565b915061209682612057565b602082019050919050565b5f6020820190508181035f8301526120b88161207f565b9050919050565b7f4170706f696e746d656e7420616c7265616479207061696400000000000000005f82015250565b5f6120f3601883611a68565b91506120fe826120bf565b602082019050919050565b5f6020820190508181035f830152612120816120e7565b9050919050565b7f496e73756666696369656e742066756e647300000000000000000000000000005f82015250565b5f61215b601283611a68565b915061216682612127565b602082019050919050565b5f6020820190508181035f8301526121888161214f565b905091905056fea26469706673582212200cfed08ca9823777e1ac671ee4424423503b3adc7bde7e6588ef29ed512a4e4464736f6c63430008150033",
  "immutableReferences": {},
  "source": "// SPDX-License-Identifier: MIT\r\npragma solidity ^0.8.0;\r\n\r\ncontract BarberShop {\r\n    address public owner;\r\n\r\n    enum AppointmentState { Pending, Booked, Paid }\r\n\r\n    struct Client {\r\n        string name;\r\n        uint256 phoneNumber;\r\n        mapping(uint256 => Appointment) appointments;\r\n    }\r\n\r\n    struct Staff {\r\n        string name;\r\n        address staffId;\r\n        mapping(uint256 => uint256) services; // serviceId => price\r\n    }\r\n\r\n    struct Service {\r\n        string name;\r\n        address staffId;\r\n    }\r\n\r\n    struct Appointment {\r\n        uint256 serviceId;\r\n        uint256 timestamp;\r\n        AppointmentState state;\r\n    }\r\n\r\n    mapping(address => Client) public clients;\r\n    mapping(address => Staff) public staff;\r\n    mapping(uint256 => Service) public services;\r\n\r\n    event ClientAdded(address indexed clientAddress, string name, uint256 phoneNumber);\r\n    event StaffAdded(address indexed staffAddress, string name, address employeeId);\r\n    event ClientUpdated(address indexed clientAddress, string newName, uint256 newPhoneNumber);\r\n    event StaffUpdated(address indexed staffAddress, string newName, address newEmployeeId);\r\n    event ClientRemoved(address indexed clientAddress);\r\n    event StaffRemoved(address indexed staffAddress);\r\n    event ServiceAdded(uint256 indexed serviceId, string name, address staffId);\r\n    event AppointmentBooked(address indexed clientAddress, uint256 serviceId, uint256 timestamp);\r\n    event AppointmentPaid(address indexed clientAddress, uint256 serviceId, uint256 amount);\r\n\r\n    modifier onlyOwner() {\r\n        require(msg.sender == owner, \"You are not the owner\");\r\n        _;\r\n    }\r\n\r\n    constructor() {\r\n        owner = msg.sender;\r\n    }\r\n\r\n function addClient(address _clientAddress, string memory _name, uint256 _phoneNumber) external onlyOwner {\r\n    Client storage newClient = clients[_clientAddress];\r\n    newClient.name = _name;\r\n    newClient.phoneNumber = _phoneNumber;\r\n    emit ClientAdded(_clientAddress, _name, _phoneNumber);\r\n}\r\n\r\n\r\n    function updateClient(address _clientAddress, string memory _newName, uint256 _newPhoneNumber) external onlyOwner {\r\n        clients[_clientAddress].name = _newName;\r\n        clients[_clientAddress].phoneNumber = _newPhoneNumber;\r\n        emit ClientUpdated(_clientAddress, _newName, _newPhoneNumber);\r\n    }\r\n\r\n    function removeClient(address _clientAddress) external onlyOwner {\r\n        delete clients[_clientAddress];\r\n        emit ClientRemoved(_clientAddress);\r\n    }\r\n\r\n  function addStaff(address _staffAddress, string memory _name, address _staffId) external onlyOwner {\r\n    Staff storage newStaff = staff[_staffAddress];\r\n    newStaff.name = _name;\r\n    newStaff.staffId = _staffId;\r\n    emit StaffAdded(_staffAddress, _name, _staffId);\r\n}\r\n\r\n\r\n    function updateStaff(address _staffAddress, string memory _newName, address _newStaffId) external onlyOwner {\r\n        staff[_staffAddress].name = _newName;\r\n        staff[_staffAddress].staffId = _newStaffId;\r\n        emit StaffUpdated(_staffAddress, _newName, _newStaffId);\r\n    }\r\n\r\n    function removeStaff(address _staffAddress) external onlyOwner {\r\n        delete staff[_staffAddress];\r\n        emit StaffRemoved(_staffAddress);\r\n    }\r\n\r\n    function addService(uint256 _serviceId, string memory _name, address _staffId) external onlyOwner {\r\n        services[_serviceId] = Service(_name, _staffId);\r\n        emit ServiceAdded(_serviceId, _name, _staffId);\r\n    }\r\n\r\n    function viewService(uint256 _serviceId) external view returns (string memory serviceName, address staffId) {\r\n        return (services[_serviceId].name, services[_serviceId].staffId);\r\n    }\r\n\r\n    function viewStaff(address _staffId) external view returns (string memory staffName, address staffId) {\r\n        return (staff[_staffId].name, staff[_staffId].staffId);\r\n    }\r\n\r\n    function bookAppointment(uint256 _serviceId) external {\r\n        require(clients[msg.sender].phoneNumber != 0, \"Client not registered\");\r\n        require(services[_serviceId].staffId != address(0), \"Service not found\");\r\n\r\n        clients[msg.sender].appointments[_serviceId] = Appointment(_serviceId, block.timestamp, AppointmentState.Booked);\r\n        emit AppointmentBooked(msg.sender, _serviceId, block.timestamp);\r\n    }\r\n\r\n    function payForAppointment(uint256 _serviceId) external payable {\r\n        require(clients[msg.sender].phoneNumber != 0, \"Client not registered\");\r\n        Appointment storage appointment = clients[msg.sender].appointments[_serviceId];\r\n        require(appointment.timestamp != 0, \"No appointment found\");\r\n        require(appointment.state == AppointmentState.Booked, \"Appointment already paid\");\r\n\r\n        uint256 amount = msg.value;\r\n        uint256 price = staff[services[_serviceId].staffId].services[_serviceId];\r\n\r\n        require(amount >= price, \"Insufficient funds\");\r\n\r\n        // Mark the appointment as paid\r\n        appointment.state = AppointmentState.Paid;\r\n\r\n        // Transfer the payment to the staff\r\n        payable(owner).transfer(price);\r\n\r\n        emit AppointmentPaid(msg.sender, _serviceId, price);\r\n    }\r\n}\r\n",
  "sourcePath": "C:\\Users\\Nada\\Desktop\\Barbershop\\contracts\\BarberShop.sol",
  "compiler": {
    "name": "solc",
    "version": "0.8.21+commit.d9974bed.Emscripten.clang"
  },
  "schemaVersion": "3.4.15",
  "updatedAt": "2024-01-19T11:08:31.546Z",
  "devdoc": {
    "kind": "dev",
    "methods": {},
    "version": 1
  },
  "userdoc": {
    "kind": "user",
    "methods": {},
    "version": 1
  }
}